:020000020000FC
:06000000DDC136C035C071
:0200120004C028
:0200160033C0F5
:10001A0045C067E06121F1F4383019F0323019F047
:10002A00189500000000439B06C04398000000009A
:10003A0000000000189568B165FF04C068606F7D14
:10004A0068B9189564FF03C068E268B9189568E34F
:10005A0068B918951A94189570E06FE07093850046
:10006A00609384001BC04A9B03C05F982061189567
:10007A005F9A189520FF0DC021FF05C062EA6093C0
:10008A0080002D7F09C0299862E260938000226077
:10009A0003C062EA609380002B7F189514FE15C096
:1000AA0063E063BD68E06093B10061E067BB64E050
:1000BA0066BD64E36093B20069E06093B10061E0F9
:1000CA00162A43984598449812C065E066BD68E0D0
:1000DA006093B10061E067BB6CE36093B20069E0D2
:1000EA006093B10061E0162A43984598449850936A
:1000FA00870040938600489903C05998222414C067
:10010A00E09B12C0E09A599A222420FF02C021FFE4
:10011A000BC02F7E4C9B08C014FE04C0B0E0A3E0C5
:10012A003AE002C039E03EC0119719F531503B3030
:10013A0009F420C03A3009F42DC0393009F432C02C
:10014A00383009F43FC0373009F440C0363009F47A
:10015A0042C0353009F44AC0343009F451C0333052
:10016A0009F457C0323009F464C0313009F465C06B
:10017A0069C0189550928B0040928A00289A5E981E
:10018A005F9AB0E0A72D23946FE02622599A23FCA8
:10019A005998EFCF70E070938B00E0928A00B0E03C
:1001AA00A82DE7CF70E070938B00F0928A007093CD
:1001BA008900F09288005F98AE0124602C7FB0E03D
:1001CA00A92DD7CF38BCB92FA82FD3CF7FEF78BDB1
:1001DA00B0E0A3E0CECFAF012560226070E070935B
:1001EA008B00E0928A00B0E0AA2DC3CF50928B0018
:1001FA0040928A0028985E9A5F9AB0E0AB2DB9CFF8
:10020A005F9A70E070938B00E0928A00B0E0AC2DA8
:10021A00B0CF70E070938B00F0928A0070938900DF
:10022A00F09288005F98AE0124602C7FB0E0AD2D7B
:10023A00A0CF38BCB12FA02F9CCF7FEF78BDB0E004
:10024A00A3E097CF5F98AF012560226070E07093BA
:10025A008B00E0928A00B0E0A62D3CE08ACF69E1EB
:10026A006093810062EE609380006AE065BD63E29C
:10027A0064BD69E06093B10063E06093B00066E03A
:10028A00662E65E0762E65E0862E66E1962E65E09E
:10029A00A62E65E0B62E64E0C62E66E1D62E6BE386
:1002AA00F62E6DE1E62E61E0562E6CE6462E91E0C2
:1002BA0088E111E008E1D3E0CFE5F1E0EFEA6BE68F
:1002CA0067BD64E1362E68BD62E56093B300F093C2
:1002DA008700E0938600AF0150928B0040928A001B
:1002EA0070E062EA7093890060938800B0E0A72DFD
:1002FA003BE060E0609385006093840065E466BD3E
:10030A0065E46093B200089569E16093810062EE4A
:10031A00609380006AE065BD63E264BD69E0609352
:10032A00B10063E06093B00066E0662E66E0762E68
:10033A0066E0862E6DE0962E67E0A62E66E0B62E63
:10034A0065E0C62E6EE0D62E63E4F62E62E2E62E55
:10035A0061E0562E6CE6462E90E08DEE10E00DEE32
:10036A00D3E0C9E5F1E0ECEA6BE667BD60E1362E61
:10037A0068BD61E56093B300F0938700E09386005F
:10038A00AF0150928B0040928A007FEF67E870932A
:10039A00890060938800B0E0A72D3BE060E060939D
:1003AA0085006093840065E466BD65E46093B200ED
:1003BA0008956FEF6DBF64E06EBF579A569A519ACF
:1003CA00599A559A539A229A219A2998209A3B9A8D
:1003DA003D9A3C9A43984598449860E0162E60E10D
:1003EA003099162E14FC02C03ADF01C08DDF222498
:1003FA0063E060936F0061E06093700063E0609374
:0C040A00690061E063BF78948895FECF24
:00000001FF
